:020000040800F2
:1000000000000220E11B0008151B0008231B00084C
:10001000291B00082F1B0008351B000800000000EA
:100020000000000000000000000000003B1B000872
:10003000491B000800000000571B0008651B000852
:10004000311C0008311C0008311C0008311C00085C
:10005000311C0008311C0008311C0008311C00084C
:10006000311C0008311C0008311C0008311C00083C
:10007000311C0008311C0008311C0008311C00082C
:10008000311C0008311C0008311C0008311C00081C
:10009000311C0008311C0008311C0008311C00080C
:1000A000311C0008311C0008311C0008311C0008FC
:1000B000311C0008311C0008311C0008311C0008EC
:1000C000311C0008311C0008311C0008311C0008DC
:1000D000311C0008311C0008311C0008311C0008CC
:1000E000311C0008311C0008311C0008311C0008BC
:1000F000311C0008311C0008311C0008311C0008AC
:10010000311C0008311C0008311C0008311C00089B
:10011000311C0008311C0008311C0008311C00088B
:10012000311C0008311C0008311C0008311C00087B
:10013000311C00080000000000000000311C000815
:10014000311C0008311C0008311C0008311C00085B
:10015000311C0008311C0008311C0008311C00084B
:10016000311C0008311C0008311C0008311C00083B
:10017000311C0008311C0008311C00080000000080
:1001800000000000311C000800000000000000001A
:10019000311C00080000000000000000311C0008B5
:1001A000000000000000000000000000311C0008FA
:1001B000311C0008311C0008311C0008311C0008EB
:0401C000311C0008E6
:1001C40010B5054C237833B9044B13B10448AFF38D
:1001D40000800123237010BD0C00002000000000EB
:1001E4007C1C000808B5034B1BB103490348AFF35B
:1001F400008008BD00000000100000207C1C0008E6
:1002040053B94AB9002908BF00281CBF4FF0FF3179
:100214004FF0FF3000F07AB9ADF1080C6DE904CE6F
:1002240000F006F8DDF804E0DDE9022304B07047CD
:100234002DE9F0478C460D460446089E002B51D10B
:100244008A4217466DD9B2FA82FEBEF1000F0BD076
:10025400CEF1200C01FA0EF520FA0CFC02FA0EF78E
:100264004CEA050C00FA0EF44FEA174A250CBCFBC5
:10027400FAF81FFA87F90AFB18CC45EA0C4508FB83
:1002840009F3AB420AD9ED1908F1FF3280F023815A
:10029400AB4240F22081A8F102083D44ED1AA4B219
:1002A400B5FBFAF00AFB105544EA054400FB09F9D2
:1002B400A14509D9E41900F1FF3380F00A81A14571
:1002C40040F2078102383C44A4EB090440EA0840A8
:1002D4000021002E61D024FA0EF4002334607360F0
:1002E400BDE8F0878B4207D9002E54D0002186E860
:1002F40021000846BDE8F087B3FA83F1002940F0F5
:100304008E80AB4202D3824200F2FA80841A65EBFB
:1003140003050120AC46002E3FD086E81010BDE84E
:10032400F08712B90127B7FBF2F7B7FA87FEBEF1DF
:10033400000F34D1EB1B3A0C1FFA87FC0121B3FBED
:10034400F2F8250C02FB183345EA03450CFB08F3CD
:10035400AB4207D9ED1908F1FF3002D2AB4200F2EB
:10036400D1808046ED1AA3B2B5FBF2F002FB105522
:1003740043EA05440CFB00FCA44507D9E41900F149
:10038400FF3302D2A44500F2B8801846A4EB0C0453
:1003940040EA08409DE731463046BDE8F087CEF19B
:1003A400200405FA0EF307FA0EF720FA04F83A0CC3
:1003B40025FA04F448EA0308B4FBF2F14FEA1845BD
:1003C40002FB11441FFA87FC45EA044501FB0CF3C8
:1003D400AB4200FA0EF409D9ED1901F1FF3080F0B7
:1003E4008A80AB4240F2878002393D44EB1A1FFAFF
:1003F40088F5B3FBF2F002FB103345EA034500FB3A
:100404000CF3AB4207D9ED1900F1FF386FD2AB42C0
:100414006DD902383D44EB1A40EA01418FE7C1F13E
:10042400200722FA07F88B4005FA01F448EA03038F
:1004340020FA07FE4FEA134CFD404EEA040EB5FBCA
:10044400FCF94FEA1E440CFB19551FFA83F844EAE1
:10045400054509FB08F4AC4202FA01F200FA01FA7C
:1004640008D9ED1809F1FF3043D2AC4241D9A9F1C2
:1004740002091D442D1B1FFA8EFEB5FBFCF00CFB7C
:1004840010554EEA054400FB08F8A04507D9E418C6
:1004940000F1FF3529D2A04527D902381C4440EA8F
:1004A4000940A4EB0804A0FB02894C45C6464D460E
:1004B40015D312D056B1BAEB0E0364EB050404FA5B
:1004C40007F7CB401F43CC40376074600021BDE880
:1004D400F0871846F8E69046E0E6C245EAD2B8EB63
:1004E400020E69EB03050138E4E72846D7E74046E6
:1004F40091E78146BEE7014678E702383C4445E788
:10050400084608E7A8F102083D442BE7704700BFFE
:1005140080B500AF0E4A0E4B1B6843F400731360A2
:100524000B4A0B4B1B6843F480631360084A084B67
:100534001B6843F480731360032000F007FA002063
:1005440000F008F801F092FA0023184680BD00BFBD
:10055400003C024080B582B000AF7860124B1A684C
:10056400124B1B7819464FF47A73B3FBF1F3B2FBC9
:10057400F3F3184600F011FA0346002B01D00123CF
:100584000EE07B680F2B0AD8002279684FF0FF3009
:1005940000F0E7F9064A7B681360002300E00123BA
:1005A40018460837BD4680BD08000020040000201E
:1005B4000000002080B400AF064B1B781A46064B9F
:1005C4001B681344044A136000BFBD465DF8047BF6
:1005D400704700BF040000202C00002080B400AF4E
:1005E400034B1B681846BD465DF8047B704700BF8B
:1005F4002C00002080B584B000AF78600023FB603D
:100604007B68002B01D10123ECE07B6893F8203058
:10061400DBB2002B02D1786801F092F87B681B688A
:100624007A681268126822F002021A60FFF7D6FF95
:10063400F86012E0FFF7D2FF0246FB68D31A0A2BD8
:100644000BD97B685B6A43F400327B685A627B682F
:10065400052283F820200123C4E07B681B685B68C3
:1006640003F00203002BE5D17B681B687A681268EB
:10067400126842F001021A60FFF7B0FFF86012E05E
:10068400FFF7ACFF0246FB68D31A0A2B0BD97B6831
:100694005B6A43F400327B685A627B68052283F804
:1006A400202001239EE07B681B685B6803F0010344
:1006B400002BE5D07B681B7E012B08D17B681B686F
:1006C4007A681268126842F080021A6007E07B6858
:1006D4001B687A681268126822F080021A607B68CC
:1006E4005B7E012B08D17B681B687A6812681268EC
:1006F40042F040021A6007E07B681B687A6812685F
:10070400126822F040021A607B689B7E012B08D19C
:100714007B681B687A681268126842F020021A60CB
:1007240007E07B681B687A681268126822F020026E
:100734001A607B68DB7E012B08D17B681B687A68B2
:100744001268126822F010021A6007E07B681B68C6
:100754007A681268126842F010021A607B681B7F84
:10076400012B08D17B681B687A681268126842F012
:1007740008021A6007E07B681B687A6812681268CE
:1007840022F008021A607B685B7F012B08D17B682A
:100794001B687A681268126842F004021A6007E063
:1007A4007B681B687A681268126822F004021A6077
:1007B4007B681B687A6891687A68D26811437A68A2
:1007C400126911437A68526911437A685268013A8E
:1007D4000A43DA617B6800225A627B68012283F84B
:1007E4002020002318461037BD4680BD80B485B054
:1007F40000AF78607B6803F00703FB600C4BDB6899
:10080400BB60BA684FF6FF031340BB60FB681A0273
:10081400BB68134343F0BF6343F40033BB60044A33
:10082400BB68D36000BF1437BD465DF8047B7047D6
:1008340000ED00E080B400AF044BDB681B0A03F05A
:1008440007031846BD465DF8047B704700ED00E0E1
:1008540080B483B000AF03463960FB7197F9073069
:10086400002B0BDA0D49FB7903F00F03043B3A68C4
:10087400D2B21201D2B20B441A7609E0084997F9B0
:1008840007303A68D2B21201D2B20B4483F8002383
:1008940000BF0C37BD465DF8047B704700ED00E0F7
:1008A40000E100E080B489B000AFF860B9607A601C
:1008B400FB6803F00703FB61FB69C3F10703042B27
:1008C40028BF0423BB61FB690433062B02D9FB69EF
:1008D400033B00E000237B610122BB6902FA03F3BE
:1008E4005A1EBB681A407B699A4001217B6901FA50
:1008F40003F3591E7B680B40134318462437BD4647
:100904005DF8047B7047000080B582B000AF78606A
:100914007B68013BB3F1807F01D301230FE00A4AD6
:100924007B68013B53600F214FF0FF30FFF790FFCE
:10093400054B00229A60044B07221A6000231846D4
:100944000837BD4680BD00BF10E000E080B582B02E
:1009540000AF78607868FFF749FF00BF0837BD46ED
:1009640080BD80B586B000AF0346B9607A60FB7382
:1009740000237B61FFF75EFF78617A68B968786964
:10098400FFF790FF024697F90F3011461846FFF71C
:100994005FFF00BF1837BD4680BD80B582B000AF91
:1009A40078607868FFF7B0FF034618460837BD46FD
:1009B40080BD000080B483B000AF78607B68042BF6
:1009C40006D1094A084B1B6843F00403136005E091
:1009D400054A054B1B6823F00403136000BF0C3762
:1009E400BD465DF8047B704710E000E080B500AFC1
:1009F40000F002F800BF80BD80B400AF00BFBD4668
:100A04005DF8047B7047000080B489B000AF786063
:100A1400396000237B6100233B610023BB61002319
:100A2400FB6165E10122FB6902FA03F37B613B6828
:100A34001A687B6913403B613A697B699A4240F0CA
:100A440054813B685B68022B03D03B685B68122BC4
:100A540023D1FB69DA087B68083253F82230BB6182
:100A6400FB6903F007039B000F2202FA03F3DB4345
:100A7400BA691340BB613B681A69FB6903F0070359
:100A84009B0002FA03F3BA691343BB61FB69DA08FA
:100A94007B680832B96943F822107B681B68BB6124
:100AA400FB695B00032202FA03F3DB43BA691340D8
:100AB400BB613B685B6803F00302FB695B0002FAFD
:100AC40003F3BA691343BB617B68BA691A603B6874
:100AD4005B68012B0BD03B685B68022B07D03B683B
:100AE4005B68112B03D03B685B68122B30D17B68A9
:100AF4009B68BB61FB695B00032202FA03F3DB43DF
:100B0400BA691340BB613B68DA68FB695B0002FAAF
:100B140003F3BA691343BB617B68BA699A607B6863
:100B24005B68BB610122FB6902FA03F3DB43BA6928
:100B34001340BB613B685B681B0903F00102FB695E
:100B440002FA03F3BA691343BB617B68BA695A605A
:100B54007B68DB68BB61FB695B00032202FA03F379
:100B6400DB43BA691340BB613B689A68FB695B006D
:100B740002FA03F3BA691343BB617B68BA69DA60AA
:100B84003B685B6803F08053002B00F0AE800023C9
:100B9400FB605C4A5B4B5B6C43F480435364594B8E
:100BA4005B6C03F48043FB60FB68574AFB699B085A
:100BB400023352F82330BB61FB6903F003039B004B
:100BC4000F2202FA03F3DB43BA691340BB617B686B
:100BD4004E4A934225D07B684D4A93421FD07B688E
:100BE4004C4A934219D07B684B4A934213D07B689A
:100BF4004A4A93420DD07B68494A934207D07B68A6
:100C0400484A934201D106230CE007230AE0052356
:100C140008E0042306E0032304E0022302E00123A6
:100C240000E00023FA6902F0030292009340BA69DB
:100C34001343BB613449FB699B080233BA6941F829
:100C44002320394B1B68BB613B69DB43BA69134002
:100C5400BB613B685B6803F48033002B03D0BA6943
:100C64003B691343BB61304ABB6913602E4B5B681D
:100C7400BB613B69DB43BA691340BB613B685B689A
:100C840003F40033002B03D0BA693B691343BB61FF
:100C9400254ABB695360244B9B68BB613B69DB43BA
:100CA400BA691340BB613B685B6803F48013002B93
:100CB40003D0BA693B691343BB611B4ABB699360A8
:100CC400194BDB68BB613B69DB43BA691340BB6109
:100CD4003B685B6803F40013002B03D0BA693B69DB
:100CE4001343BB61104ABB69D360FB690133FB61E9
:100CF400FB690F2B7FF696AE00BF2437BD465DF827
:100D0400047B704700380240003801400000024074
:100D14000004024000080240000C0240001002409F
:100D24000014024000180240003C014080B584B029
:100D340000AF786039607B68002B01D10123CAE0E1
:100D4400674B1B6803F00F023B689A420CD2644B5A
:100D54003A68D2B21A70624B1B6803F00F023B6808
:100D64009A4201D00123B6E07B681B6803F00203BA
:100D7400002B20D07B681B6803F00403002B05D0F4
:100D8400584A584B9B6843F4E05393607B681B6854
:100D940003F00803002B05D0524A524B9B6843F4DE
:100DA400604393604F494F4B9B6823F0F0027B688C
:100DB4009B6813438B607B681B6803F00103002B63
:100DC40044D07B685B68012B07D1464B1B6803F456
:100DD4000033002B19D101237DE07B685B68022B73
:100DE40003D07B685B68032B07D13E4B1B6803F081
:100DF4000073002B09D101236DE03A4B1B6803F00B
:100E04000203002B01D1012365E03649354B9B6871
:100E140023F003027B685B6813438B60FFF7DEFB00
:100E2400F8600AE0FFF7DAFB0246FB68D31A41F2E6
:100E34008832934201D903234DE02A4B9B6803F087
:100E44000C027B685B689B009A42EBD1244B1B68C5
:100E540003F00F023B689A420CD9214B3A68D2B294
:100E64001A701F4B1B6803F00F023B689A4201D0B3
:100E7400012330E07B681B6803F00403002B08D0D7
:100E84001849184B9B6823F4E0527B68DB681343D2
:100E94008B607B681B6803F00803002B09D01149A1
:100EA400104B9B6823F460427B681B69DB0013438F
:100EB4008B6000F029F801460A4B9B681B0903F07C
:100EC4000F03094AD35C21FA03F3084A1360002094
:100ED400FFF740FB002318461037BD4680BD00BF16
:100EE400003C024000380240B41C00080800002006
:100EF40080B400AF034B1B681846BD465DF8047B05
:100F0400704700BF080000202DE9F04F91B000AFFA
:100F140000237B630023FB6300233B630023FB620A
:100F24000023BB639E4B9B6803F00C030C2B00F265
:100F34002D8101A252F823F0710F000891110008CD
:100F44009111000891110008770F00089111000811
:100F540091110008911100087D0F000891110008FB
:100F64009111000891110008931000088D4BBB6388
:100F74000FE18D4BBB630CE1894B5B6803F03F03CE
:100F84007B63874B5B6803F48003002B23D0844B83
:100F94005B689B094FF0000440F2FF114FF0000220
:100FA40003EA010304EA02047F4A02FB04F100227B
:100FB40002FB03F20A447C49A3FB010153181946BE
:100FC4007B6B4FF000041A462346FFF719F90346DA
:100FD4000C46FB634DE0724B5B689B094FF00004C9
:100FE40040F2FF114FF0000201EA030102EA040299
:100FF4000B46144660017862786A40EAD3607862EE
:101004005B013B62D7E908345B1A64EB02044FEAE4
:10101400841949EA93694FEA8318B8EB030869EB2A
:1010240004094FEAC903FB61FB6943EA5873FB6196
:101034004FEAC803BB61D7E9068918EB010849EBFD
:1010440002094FEA89237B617B6943EA98537B61F8
:101054004FEA88233B61D7E90489404649467B6BC4
:101064004FF000041A462346FFF7CAF803460C461D
:10107400FB634B4B5B681B0C03F0030301335B0006
:101084003B63FA6B3B6BB2FBF3F3BB6381E0444B12
:101094005B6803F03F037B63414B5B6803F48003AD
:1010A400002B23D03E4B5B689B094FF0000440F2B9
:1010B400FF114FF0000203EA010304EA02043A4A72
:1010C40002FB04F1002202FB03F20A443649A3FBAB
:1010D4000101531819467B6B4FF000041A4623464E
:1010E400FFF78EF803460C46FB6343E02C4B5B682A
:1010F4009B094FF0000440F2FF114FF0000201EA97
:10110400030102EA04020B4614466001F860F86821
:1011140040EAD360F8605B01BB60D7E902345B1A34
:1011240064EB0204A60146EA93669D01ED1A66EBA0
:101134000406F3007B607B6843EA55737B60EB0035
:101144003B6097E860006D1846EB02064FEA862B79
:101154004BEA955B4FEA852A55465E46284631465A
:101164007B6B4FF000041A462346FFF749F8034609
:101174000C46FB630A4B5B681B0F03F00703FB621F
:10118400FA6BFB6AB2FBF3F3BB6302E0054BBB6390
:1011940000BFBB6B18464437BD46BDE8F08F00BFA7
:1011A400003802400024F40040787D0180B586B008
:1011B40000AF786000233B617B681B6803F0010388
:1011C400002B00F08380954B9B6803F00C03042BE9
:1011D40019D0924B9B6803F00C03082B06D18F4B5C
:1011E4005B6803F48003B3F5800F0CD08B4B9B68D2
:1011F40003F00C030C2B12D1884B5B6803F48003BF
:10120400B3F5800F0BD1854B1B6803F40033002B1F
:101214005BD07B685B68002B57D1012316E27B68A7
:101224005B68B3F5803F06D17C4A7C4B1B6843F472
:10123400803313601DE07B685B68B3F5A02F0CD18D
:10124400764A764B1B6843F480231360734A734BCE
:101254001B6843F4803313600BE0704A6F4B1B68C8
:1012640023F4803313606D4A6C4B1B6823F4802392
:1012740013607B685B68002B13D0FFF7AFF938610C
:1012840008E0FFF7ABF902463B69D31A642B01D996
:101294000323DBE1614B1B6803F40033002BF0D024
:1012A40014E0FFF79BF9386108E0FFF797F902466D
:1012B4003B69D31A642B01D90323C7E1574B1B683D
:1012C40003F40033002BF0D100E000BF7B681B68FF
:1012D40003F00203002B6FD0504B9B6803F00C0308
:1012E400002B17D04D4B9B6803F00C03082B05D142
:1012F4004A4B5B6803F48003002B0BD0474B9B687D
:1013040003F00C030C2B1CD1444B5B6803F48003E7
:10131400002B16D1414B1B6803F00203002B05D0B0
:101324007B68DB68012B01D001238FE13B493B4BF8
:101334001B6823F0F8027B681B69DB0013430B6016
:101344003AE07B68DB68002B20D0354B01221A6021
:10135400FFF744F9386108E0FFF740F902463B69BA
:10136400D31A022B01D9032370E12C4B1B6803F021
:101374000203002BF0D02949284B1B6823F0F80204
:101384007B681B69DB0013430B6015E0244B0022D0
:101394001A60FFF723F9386108E0FFF71FF90246E6
:1013A4003B69D31A022B01D903234FE11B4B1B6862
:1013B40003F00203002BF0D17B681B6803F00803E1
:1013C400002B37D07B685B69002B16D0154B0122AC
:1013D4001A60FFF703F9386108E0FFF7FFF80246E7
:1013E4003B69D31A022B01D903232FE10B4B5B6F0B
:1013F40003F00203002BF0D01CE00A4B00221A6019
:10140400FFF7ECF838610FE0FFF7E8F802463B69B4
:10141400D31A022B08D9032318E100BF0038024075
:1014240000004742800E47428A4B5B6F03F0020381
:10143400002BE9D17B681B6803F00403002B00F048
:1014440097800023FB75834B1B6C03F08053002BA8
:101454000FD10023FB607F4A7E4B1B6C43F080530B
:1014640013647C4B1B6C03F08053FB60FB6801230B
:10147400FB75794B1B6803F48073002B18D1764AF3
:10148400754B1B6843F480731360FFF7A7F838614A
:1014940008E0FFF7A3F802463B69D31A022B01D9EF
:1014A4000323D3E06C4B1B6803F48073002BF0D050
:1014B4007B689B68012B06D1664A664B1B6F43F021
:1014C400010313671CE07B689B68052B0CD1614A00
:1014D400604B1B6F43F0040313675E4A5D4B1B6F45
:1014E40043F0010313670BE05A4A5A4B1B6F23F076
:1014F40001031367574A574B1B6F23F00403136709
:101504007B689B68002B15D0FFF768F838610AE008
:10151400FFF764F802463B69D31A41F288329342DA
:1015240001D9032392E04B4B1B6F03F00203002B02
:10153400EED014E0FFF752F838610AE0FFF74EF8F6
:1015440002463B69D31A41F28832934201D90323FC
:101554007CE0404B1B6F03F00203002BEED1FB7DBC
:10156400012B05D13B4A3B4B1B6C23F08053136486
:101574007B689B69002B68D0364B9B6803F00C0397
:10158400082B60D07B689B69022B45D1334B00222A
:101594001A60FFF723F8386108E0FFF71FF80246E6
:1015A4003B69D31A022B01D903234FE0294B1B6853
:1015B40003F00073002BF0D126497B68DA697B685D
:1015C4001B6A1A437B685B6A9B011A437B689B6AAC
:1015D4005B08013B1B041A437B68DB6A1B061A4346
:1015E4007B681B6B1B0713434B601C4B01221A6067
:1015F400FEF7F4FF386108E0FEF7F0FF02463B69AE
:10160400D31A022B01D9032320E0124B1B6803F0E9
:101614000073002BF0D018E0104B00221A60FEF784
:10162400DDFF386108E0FEF7D9FF02463B69D31AB3
:10163400022B01D9032309E0064B1B6803F0007356
:10164400002BF0D101E0012300E0002318461837F5
:10165400BD4680BD00380240007000406000474233
:1016640080B500AF174B184A1A60164B10225A6007
:10167400144B00229A60134B0022DA60114B0022B3
:101684001A61104B00225A610E4B00221A760D4B40
:1016940000225A760B4B00229A760A4B0022DA7605
:1016A400084B00221A77074B00225A770548FEF7A9
:1016B400A1FF0346002B03D04621044800F0D0F9D3
:1016C40000BF80BD5800002000640040941C000846
:1016D40080B500AF174B184A1A60164B10225A6097
:1016E400144B00229A60134B0022DA60114B002243
:1016F4001A61104B00225A610E4B00221A760D4BD0
:1017040000225A760B4B00229A760A4B0022DA7694
:10171400084B00221A77074B00225A770548FEF738
:1017240069FF0346002B03D05C21044800F098F9BC
:1017340000BF80BD3000002000680040941C0008F9
:1017440080B58AB000AF78607B681B68354A9342E5
:1017540028D1354B1B680133334A1360324B1B6865
:10176400012B0DD100233B61304A304B1B6C43F0FD
:10177400007313642D4B1B6C03F000733B613B69D6
:101784004FF4C0537B610223BB610023FB6103233D
:101794003B6209237B6207F1140319462448FFF7CF
:1017A40033F93AE07B681B68224A934235D100231F
:1017B400FB601E4A1D4B1B6C43F0806313641B4B80
:1017C4001B6C03F08063FB60FB68174B1B680133E1
:1017D400154A1360144B1B68012B0DD10023BB6009
:1017E400124A124B1B6C43F0007313640F4B1B6CB7
:1017F40003F00073BB60BB684FF440537B6102236A
:10180400BB610023FB6103233B6209237B6207F175
:10181400140319460848FFF7F7F800BF2837BD46F8
:1018240080BD00BF00640040280000200038024052
:1018340000000240006800400004024080B58AB005
:1018440000AF00233B61434A424B1B6B43F004034C
:101854001363404B1B6B03F004033B613B690023A0
:10186400FB603C4A3B4B1B6B43F080031363394BD7
:101874001B6B03F08003FB60FB680023BB60354AED
:10188400344B1B6B43F001031363324B1B6B03F0AC
:101894000103BB60BB6800237B602E4A2D4B1B6B8E
:1018A40043F0020313632B4B1B6B03F002037B60B7
:1018B4007B6800233B60274A264B1B6B43F00803DD
:1018C4001363244B1B6B03F008033B603B684FF628
:1018D400FF737B610323BB610023FB6107F11403E6
:1018E40019461D48FFF790F803237B610323BB616E
:1018F4000023FB6107F1140319461848FFF784F825
:101904004EF2FF737B610323BB610023FB6107F18C
:10191400140319461248FFF777F84CF2FF737B6102
:101924000323BB610023FB6107F1140319460D482F
:10193400FFF76AF804237B610323BB610023FB6187
:1019440007F1140319460848FFF75EF800BF28376B
:10195400BD4680BD0038024000080240001C024021
:101964000000024000040240000C024080B500AFB9
:10197400FEF7CEFD00F008F8FFF760FFFFF770FEFA
:10198400FFF7A6FEFEE7000080B594B000AF002389
:101994007B602F4A2E4B1B6C43F0805313642C4BFB
:1019A4001B6C03F080537B607B6800233B60294AF7
:1019B400284B1B6823F4404343F480431360254BB6
:1019C4001B6803F440433B603B680223FB61012333
:1019D400BB621023FB6200237B6307F11C031846E0
:1019E400FFF7E4FB0346002B03D08D211A4800F0D7
:1019F40037F80F23BB600023FB6000233B61002307
:101A04007B610023BB6107F1080300211846FFF73F
:101A14008DF90346002B03D09B210F4800F020F8DA
:101A2400FFF766FA02460D4BA3FB02239B091846F7
:101A3400FEF7B3FF0420FEF7BDFF002200214FF0A4
:101A4400FF30FEF78EFF00BF5037BD4680BD00BF9C
:101A54000038024000700040A41C0008D34D6210FE
:101A640080B483B000AF78603960FEE780B582B09F
:101A740000AF00237B60254A244B5B6C43F4804316
:101A84005364224B5B6C03F480437B607B680023CC
:101A94003B601E4A1D4B1B6C43F0805313641B4B6D
:101AA4001B6C03F080533B603B680320FEF74EFF42
:101AB400002200216FF00B00FEF753FF00220021EB
:101AC4006FF00A00FEF74DFF002200216FF00900BD
:101AD400FEF747FF002200216FF00400FEF741FFEC
:101AE400002200216FF00300FEF73BFF00220021DB
:101AF4006FF00100FEF735FF002200214FF0FF30A8
:101B0400FEF72FFF00BF0837BD4680BD00380240F6
:101B140080B400AF00BFBD465DF8047B704780B45D
:101B240000AFFEE780B400AFFEE780B400AFFEE78D
:101B340080B400AFFEE780B400AF00BFBD465DF8DF
:101B4400047B704780B400AF00BFBD465DF8047BE2
:101B5400704780B400AF00BFBD465DF8047B70479A
:101B640080B500AFFEF726FDFEF740FF00BF80BD45
:101B740080B400AF164A164BD3F8883043F4700390
:101B8400C2F88830134A134B1B6843F001031360F7
:101B9400104B00229A600F4A0E4B1B6823F084738B
:101BA40023F4803313600B4B0B4A5A60094A094BE8
:101BB4001B6823F480231360064B0022DA60044B75
:101BC4004FF000629A6000BFBD465DF8047B704729
:101BD40000ED00E00038024010300024DFF834D07B
:101BE400002103E00C4B5B58435004310B480C4B71
:101BF40042189A42F6D30B4A02E0002342F8043B0F
:101C0400094B9A42F9D3FFF7B3FF00F011F8FFF73D
:101C1400ADFE704700000220D41C00080000002024
:101C24000C0000200C00002080000020FEE70000D3
:101C340070B50D4E0D4CA41BA4100025A54209D16E
:101C44000B4E0C4C00F018F8A41BA4100025A54260
:101C540005D170BD56F8253098470135EEE756F8A2
:101C6400253098470135F2E7CC1C0008CC1C00084D
:101C7400CC1C0008D01C0008F8B500BFF8BC08BC98
:101C84009E467047F8B500BFF8BC08BC9E46704736
:101C94002E2E5C5372635C63616E2E630000000041
:101CA4002E2E5C5372635C6D61696E2E63000000BE
:101CB40000000000000000000102030406070809F8
:081CC40070E5FF7F0100000044
:041CCC00E901000822
:041CD000C501000842
:0C1CD40010000000010000000024F400DB
:0400000508001BE1F3
:00000001FF
